:020000041000EA
:1000000000B5324B212058609868022188439860DF
:10001000D860186158612E4B002199600221596106
:100020000121F02299502B49196001219960352056
:1000300000F044F80222904214D00621196600F024
:1000400034F8196E01211966002018661A6600F04E
:100050002CF8196E196E196E052000F02FF8012189
:100060000842F9D1002199601B49196000215960AB
:100070001A491B48016001219960EB211966A021F2
:10008000196600F012F800219960164914480160C1
:100090000121996001BC002800D000471248134993
:1000A000086003C880F30888084703B5996A0420EC
:1000B0000142FBD001200142F8D103BD02B5186610
:1000C0001866FFF7F2FF186E186E02BD00000240BE
:1000D000000000180000070000035F00212200005C
:1000E000F4000018222000A00001001008ED00E03C
:1000F00000000000000000000000000074B24E7A12
:1001000000200420F7010010C3010010C5010010F9
:10011000C1010010C1010010C1010010C101001097
:10012000C1010010C1010010C1010010C701001081
:10013000C1010010C1010010C9010010CB01001065
:10014000CD010010CD010010CD010010CD01001037
:10015000CD010010CD010010CD010010CD01001027
:10016000CD010010CD010010CD010010CD01001017
:10017000CD010010CD010010CD010010CD01001007
:10018000CD010010CD010010CD010010CD010010F7
:10019000CD010010CD010010CD010010CD010010E7
:1001A000CD010010CD010010CD010010CD010010D7
:1001B000CD010010CD010010CD010010CD010010C7
:1001C00000BE00BE00BE00BE00BE00BE00F04BF888
:1001D000103800BEF2EB8871B8240110DC24011045
:1001E0003402001090A31AE700202149086006C8D5
:1001F00081F3088810471F48006800282FD10DA4FC
:100200000ECC002902D000F012F8F9E71A491B4A77
:10021000002000E001C19142FCD1194988471949E9
:1002200088471949884700BEFDE701C901C29A42C3
:10023000FBD37047DC240110C0000020B01B00205D
:10024000CC3F01100000042000000420CC3F01102E
:1002500000100420001004200000000070470B482C
:1002600003F0CAF90047EFF30580C0B27047000001
:1002700008ED00E0000000D0B01B0020742000203A
:100280005919001001050010811A0010575600007E
:1002900006005250ABB360538C010110060052505F
:1002A000861C03029C010110060052505422A29D9C
:1002B000AC01011005005250DE65F468CC3F01101E
:1002C000F8B5C04610B5064C2378002B07D1054B76
:1002D000002B02D0044800E000BF0123237010BDB2
:1002E000B81E00200000000038FE0010044B10B5BE
:1002F000002B03D00349044800E000BF10BDC046F6
:1003000000000000BC1E002038FE0010F8B5DE46DC
:100310004E46454657462848E0B5D026802504F08D
:10032000F7F90A243606AD043220756100F01AFF91
:10033000012C06D03220B561023C00F013FF002CE6
:10034000F2D1D0238022A827AC2692041B069A6102
:100350001A4B1B4C98461B691A4D9B46E3592800C3
:100360009A46A359994605F0DBFD012004F0A4FB51
:1003700001210B20002204F00FFC8022124B5204BA
:100380001A60124B124A1A605A4643461A61534683
:10039000E3514B46A35101F033FC04F0F1FA28007D
:1003A00005F0F2FD0B4804F0B3F9F0BCBB46B246D1
:1003B000A946A046F8BDC04638FE001000ED00E09A
:1003C00000800040F41E0020183006400000064067
:1003D00000F0FF0048FE0010F8B5DE4657464E46D6
:1003E0004546E0B504F0CCFA3D4804F091F93D48AB
:1003F00004F08EF93C4BD02718009A4605F0B2FC69
:1004000080233F069B027B6250467B6105F0AAFC7D
:10041000002862D001220121504606F0D5F81821AB
:10042000504604F049FD0221504604F071FD0321BD
:10043000504605F067FF2D4C5046A11D05F084FE87
:1004400022000121504605F0B5FF504605F0BAFCE8
:10045000192000F0CFF980239B047B620A23994680
:10046000093B9846224D234EA9442B7844469B468F
:10047000180000F0BFF95B469C400022BC620121DD
:10048000584600F071F9336801351C4334604D451E
:10049000EBD12100184804F067FAD0265046802599
:1004A00004F086FD0A243606AD043220756100F0A2
:1004B00059FE012C06D03220B561023C00F052FEFC
:1004C000002CF2D1D02380221B0692049A61F0BC4A
:1004D000BB46B246A946A046F8BD084801F0D2FA8C
:1004E00054FE001058FE0010F41E002098FE00106C
:1004F000BCFE0010E81E002074FE001068FE001014
:10050000F0B5DE4657464E464546E0B585B0FFF7A6
:1005100063FF694B694F9946012398464246684BF1
:100520001B78BFF35B8F1A4265D04246654B1B7840
:10053000BFF35B8F1A4275D0D022802312069B0432
:1005400053614B4654681B6839681C408C4275D017
:1005500000235D490B705168536850689B4653688F
:10056000009353689A46536856689C46556853688A
:10057000526802935B4603929A0802231340820852
:1005800004200240880841461A43009B084010435B
:100590009A08082351461A40024310208B086146EE
:1005A00003401A438B0820210B401A434023B6080E
:1005B0006D0A1E40ED01BF331D40029B16432E43C2
:1005C0009D088023039A5B001D402E43DB1895088D
:1005D0001D403E4B2E43022219003D481E8005F06F
:1005E000ADFD00289AD04246354B3C601B78BFF3E6
:1005F0005B8F1A4299D1324806F0CAF8002894D08D
:10060000344A354B2E485C681B6813605460009375
:10061000019406F0D9F842462A4B1B78BFF35B8F52
:100620001A4289D1274806F0B3F8002884D04B46F7
:100630001B6824483B6006F0C7F87DE7A34200D062
:100640006CE7214B1B78002B1AD0224B03CB234B9A
:100650005A6A914200D961E79B6A834202D2914271
:1006600000D15BE7D02380221B0692049A61FFF73A
:100670004DFE0023144A13704B461B683B604DE748
:10068000174804F045F842460F4B1A7000F0EEFD93
:1006900002000B0000211348801859418B4206D8F4
:1006A00003D00C4B1860596038E78242F9D9012019
:1006B0004042C117F5E7C046E81E0020701F002029
:1006C000D41E0020D81E00206E2000206C200020A8
:1006D000F41E0020B01B0020D0FE0010004005409A
:1006E00088FE00100087930310B5054805F0FAFF57
:1006F00011221421034B044804F0B8FB10BDC0467E
:10070000EC1E002080969800F41E0020E12110B518
:100710004902074801F0B0F80221002000F00CF86F
:100720000221012000F008F8024B1B7810BDC046E2
:1007300000400340D8240110094A83009446402217
:10074000634410B51C68C0006240C024144080227D
:10075000520113431C60034B9C466044416010BD32
:1007600004C00140004001400A4B80009C46042325
:100770006044002901D00C230821002A00D10B007D
:10078000026853400C221A4080235B011843026028
:100790007047C04604C00140C30810B504000720DC
:1007A0002040800081401800094C3C3080000151FD
:1007B00008489B0084466344002A04D080229201AA
:1007C0001343196010BDC022920113431960F9E769
:1007D00000400140604101400200C3080720104072
:1007E00080008140024A3C339B0099507047C046CC
:1007F000004001400123D02283401206936293619E
:10080000094A83009446402263441968C0004A4064
:10081000C02111408022520113431960034B9C46B2
:10082000052360444360704704C00140004001401C
:1008300070B5EFF3108C72B60D4D2B68002BFCD009
:10084000BFF35F8F0724CB08C618C05C01230C40A0
:10085000A3401C000440034207D103433370BFF39D
:100860005F8F2C608CF3108870BD100001F00AF9C6
:100870002C0100D0024B18688007C00F7047C0469B
:1008800000C006400021044B044ABFF35F8F02C33F
:100890009342FAD17047C046000100D0800100D0D9
:1008A000044A1078431CDBB2172B00D910231370B5
:1008B0007047C046A012002001238340002904D0C5
:1008C000034A1360034A13607047034A1360FBE74F
:1008D00080E200E000E100E080E100E0024B103047
:1008E0009B688000C058704700ED00E070B50D00B7
:1008F000EFF3108672B60F4A1368002BFCD0BFF3DB
:100900005F8F0D4B10309B6884001B590B4A93423C
:1009100003D09D4201D001F0CDF8074B9B681D51DB
:10092000BFF35F8FBFF35F8F0022024B1A6086F325
:10093000108870BD240100D000ED00E0CD01001052
:10094000F0B5DE4657464E464546E0B50C0083B04E
:10095000EFF3108A72B65A4A1368002BFCD0BFF32B
:100960005F8F1022914681444A46564B96009B6801
:100970009D59554B98469D4205D0A54216D0534FE0
:10098000EB1B2F2B14D94F4B9B689D51BFF35F8FEF
:10099000BFF35F8F00224A4B1A608AF3108803B0BE
:1009A000F0BCBB46B246A946A046F0BD1D00EAE732
:1009B000012383409B465A46454B1B681A400092D0
:1009C0005A46444B1A60BFF35F8FFFF74CFC01900F
:1009D000002803D0814501D001F06CF801232A00E2
:1009E0009A4393689C4208D15FE04B005B189B00E0
:1009F000FB189968A14211D01A000621515600290E
:100A0000F3DA009B002B05D05A46334B1A60304B6B
:100A10001A60B8E75A462F4B1A60B4E706215956B8
:100A2000002921DB4A00501880003C188046A0684D
:100A30009860E079D871062020569871002824DB50
:100A4000A488F81A6405241544440019E02400051C
:100A5000400D2402204398805218204B9200BF186A
:100A60001A781970BA71CCE70199002910D1FF31B9
:100A700091711B49918019490A789A71194ADB1BB7
:100A80005B415A43120D0A70BBE7BD200002E2E74A
:100A9000154A1649D21A083A5002400D014399806E
:100AA000134952080A43DA80ABE706215156130076
:100AB0000029B7DA019A002AEAD14546DBE7C046A9
:100AC000240100D000ED00E0CD010010A4120020B0
:100AD00000E100E080E100E080E200E07220002020
:100AE00000BDFFFFAAAA0000DE12002000F0FFFFF9
:100AF00000F8FFFFF8B5012504000543FFF7B3FB3D
:100B0000EFF3108C72B6214A1368002BFCD0BFF3B0
:100B10005F8F1F4E2100B7681E4A1F4B891A49413B
:100B20004B431B0D59B28300F858A8421CD0062332
:100B3000D3568B421CD01223D3568B4222D01E2375
:100B4000D3568B4220D02A23D35603208B4210D079
:100B5000124B1A781970A271BFF35F8F00220B4BF2
:100B60001A608CF31088F8BDB2680D48D050EFE7DA
:100B7000002043001B189B00D218FF239371094BE0
:100B80009380E5E70120F4E70220F2E7240100D09A
:100B900000ED00E0A4120020AAAA000072200020AC
:100BA000CD01001000BDFFFF054B064A1360064A49
:100BB000136053609360D360136153619361704716
:100BC0008080808000E400E004E400E0024B9C466A
:100BD00061448900016070474000003483680B481D
:100BE00010B5844661446244090112019A185918EB
:100BF00054684B6801209C4201D802D00020C0B24A
:100C000010BD12680B689A42F9D8F7E7FFFFFF0F93
:100C10000A4B1968EFF3108072B60A68002AFCD0FC
:100C2000BFF35F8F1B68BFF35F8F00221A6080F3F2
:100C3000108840BF002000217047C046542000208B
:100C4000F8B557464E464546DE46E0B599460CABEC
:100C50001C780DAB1B78060090469A460768002C5E
:100C600011D1BC7B002C42D065003B682D19033D9F
:100C700059194B78BB73002B00D1FB7300238B7089
:100C80004B700B7004E065003B682D19033D59194A
:100C9000B2682A4B94464246E3181B0163441A602B
:100CA0004A465A600A9A9A600B9ADA6000238B705F
:100CB0004B700B707B7B9B46002B2BD02200594640
:100CC000B8687B6898473A68002816D05B46584653
:100CD0005B005B445519033BA870D118D35C002B13
:100CE00000D06B705B460C707B73A34513D0F0BCD7
:100CF000BB46B246A946A046F8BD5B465B005B44D6
:100D0000033BD3189C705119525D002A00D05A70D1
:100D10005B460B707C7342464B46307D00F030FBE7
:100D2000051E06D05346002B03D12100306800F089
:100D300049FD0E9B002BDAD01D70D8E7FFFFFF0F97
:100D4000F0B5DE464E46574645460023E0B58DB029
:100D50000A936B4B8200D3580B90994600239B4615
:100D60004B46079300F082FA079C06000F0062686A
:100D7000EFF3108572B61368002BFCD022000794A5
:100D8000BFF35F8F2468637B9946002B67D092681E
:100D90005C4B90464B441B01984443461A685B6881
:100DA00010001900801BB94100295FDD0B9800F08D
:100DB000E7FA00230026984600279A46079C6368B6
:100DC000BFF35F8F5A461A6085F310885346002B95
:100DD00008D10028C6D10DB0F0BCBB46B246A9462A
:100DE000A046F0BD0A9B414618024B461843D04727
:100DF000089009916268EFF3108572B61368002BB2
:100E0000FCD00794BFF35F8F0899099A002A48DB4A
:100E1000114303D0079B1B69002B5DD1079B1B6807
:100E2000D97B002907D04A00521819688C464946D8
:100E30006244033A51704A46DA734B46079A013BC3
:100E4000D168CA5C0132CA545B46079A1361536881
:100E5000BFF35F8F5A461A6085F3108882E700233C
:100E60000026984600279A460020A7E7002901D1CE
:100E700000289BD10021200000F026FC43461E687C
:100E80005F689B68079A9A464346DB689846D36832
:100E90004B44013B1B780A931B0203431361002060
:100EA0008CE72369002BB9D033003C005B1A9441D6
:100EB0001A002300A74219D89F421BD0594604911B
:100EC00001210391494602914146019151460798FB
:100ED0000091FFF7B5FEB7E700F0C8F9089A099B43
:100EE00006000F0092197B419942E5D90122524236
:100EF000D317E3E79642E1D901225242D317DDE747
:100F000040200020FFFFFF0FF8B557464E464546EC
:100F1000DE46E0B5404D81468A466A68EFF31088A8
:100F200072B61368002BFCD0BFF35F8F2E68B47BC2
:100F3000002C39D0670033683F19033FDB195A781A
:100F4000B273002A00D1F273A968344A8C4649462C
:100F5000A2181201624411605146516030499160FB
:100F60000021D160997059701970737B9B46002BDA
:100F700035D022001900B06873689847326800289D
:100F800020D05B4658465B005B44D719033BB870E2
:100F9000D118D35C002B00D07B705B460C70737350
:100FA0005C451DD0002626E06B68BFF35F8F1C6098
:100FB00088F3108801204042F0BCBB46B246A946E7
:100FC000A046F8BD5B465B005B44033BD3189C70B6
:100FD000D119D25D002A00D05A705B460B70747331
:100FE0004A465346287D00F0CBF9061EDAD0210090
:100FF000286800F0E7FBEB681B19013B19786B6868
:10100000BFF35F8F00221A6088F310880020002E43
:10101000D2D108022043CFE7EC120020FFFFFF0FE0
:10102000110C001010B5124C6368002B04D00A217B
:101030001048FFF7CBFD10BD23000F4A1021206898
:1010400000F060FA032000F005F9032000F008FA30
:1010500003200A4900F04EF9FFF722FC084B9C469A
:10106000032360442375074B80006060DC60DEE78B
:10107000EC12002054200020DD0B0010410D001068
:101080004000003440200020F0B504000D0006268A
:101090007642F717C64636196F4100B58F4213D80E
:1010A00010D000F0E3F832003B00121A8B41002B05
:1010B00014DC002B37D02900200000F00BF980BC95
:1010C000B846F0BD8642ECD90026002700F0CEF8E5
:1010D00032003B00121A8B41002BEADD3000390050
:1010E000FFF712FF0028E6DB00239846BC460F4AB4
:1010F0000F4F7B6A9C4504D8B96A8E42DBD99C4568
:10110000D9D11168EFF3108072B60B68002BFCD0B8
:10111000BFF35F8F1368BFF35F8F4146196080F3A1
:10112000108820BFE5E7002AC5D0D7E7542000206B
:101130000040054070B504000D0000F097F8020073
:101140000B0020002900801859418B4205D802D09D
:10115000FFF79AFF70BD8242FAD901204042C117C1
:10116000F6E7C04670B5060000F080F8FA220400E9
:101170000D00002330000021920003F0BDF800199B
:1011800069418D4205D802D0FFF77EFF70BD8442D1
:10119000FAD901204042C117F6E7C046F0B5D6465D
:1011A0004F464646C0B5EFF305833F221340180073
:1011B0001038EFF3108C72B6204D2A68002AFCD04C
:1011C000BFF35F8F0122110081401D4C884661638F
:1011D0001C4917000E788A463100C1400F400A4270
:1011E00009D1BFF35F8F2F608CF31088E0BCBA4643
:1011F000B146A846F0BD14498200646A51588C4239
:101200000FD3124BD25843469E4353461E70BFF332
:101210005F8F00232B608CF31088002AE6D0904764
:10122000E4E70B4A9B00904643441A681A60BFF3F8
:101230005F8F00232B608CF31088D7E7280100D044
:10124000004005407320002058200020B41F0020DB
:10125000D03F054010B50100024A0348FFF7E8FA05
:1012600010BDC046D8FE001071200020034B596A03
:101270000A00986A596A8A42FAD1704700400540CC
:1012800070B504000D00124A536A1900966A536A39
:101290008B42FAD13000190024184D41AB4211D8CD
:1012A0000ED02B000A494A6A9A42FCD307D1084A59
:1012B00002E0516A994202D1916AA142F9D370BD0C
:1012C000A642EED9012301246442E5175B42E9E717
:1012D00000400540064A536A9942FCD807D1044BA6
:1012E00002E05A6A914202D19A6A8242F9D3704767
:1012F0000040054070B504000D00EFF3108672B693
:101300001A4A1368002BFCD0BFF35F8F002D1BD04F
:101310002000FFF7E3FA164981420AD02000FFF7C8
:10132000E5FA01212000FFF7C7FA0123A340114A83
:101330001360114BA400E550BFF35F8F00220B4BED
:101340001A6086F3108870BD0B4BA200D5500122A5
:10135000A2400A4920000B7893430B700449FFF721
:10136000EFFA00212000FFF7A7FAE5E7280100D0F7
:101370009D11001038600540B41F0020732000202C
:10138000F0B54F46D6464646C0B507002F4C616AB9
:101390000D00A66A616AA942FAD18B4208D805D02D
:1013A0000120E0BCBA46B146A846F0BDB242F7D92A
:1013B000EFF3108A72B6264801680029FCD0BFF30B
:1013C0005F8F0125BD402349204C88460978894616
:1013D0002943C9B28C46414660460870391D1E48F3
:1013E000890065630A51B9000B50216A0020294227
:1013F00019D0616A0800A66A616A8142FAD18B42FB
:1014000019D801D1B24216D8CC451DD00F4B1F20A0
:101410001D625D6301230740BB40104A1E38136004
:1014200043464A461A70BFF35F8F0022084B1A608A
:101430008AF31088B5E70020BFF35F8F0022044BCA
:101440001A608AF31088ACE70120ECE70040054001
:10145000280100D0732000205820002080E200E006
:10146000EFF3108C72B60A490B68002BFCD0BFF367
:101470005F8F01238340074A0748136202789A432B
:101480000270BFF35F8F00230B608CF310887047EE
:10149000280100D0004005407320002070B50500F1
:1014A00014001600002915D00C00002A12D0806804
:1014B0006B689847296800280ED073009B1962005A
:1014C000033B1219CB18033A9C7088188A5C002AD7
:1014D00015D10670200070BD63001B197200033B1C
:1014E0009219CB18033A9E7088188A5C002A02D1A0
:1014F00004703400EEE75A7004703400EAE75A7062
:101500000670E7E730B583600023CCB24373013344
:10151000047342608373C4730D000068012C06D904
:10152000421C0133DBB2137003329C42F9D1FF211C
:1015300029404B005918002340180338437030BD30
:10154000F8B5CE46474606000C0080B5002907D006
:101550004D0003686D18033D5A195778002F04D1C8
:101560002000C0BCB946B046F8BD7900C91903399E
:1015700088464344597889460021597051707368F0
:101580003A002100806898473368002814D042460A
:101590009A18947059195B5D002B00D053700F702E
:1015A000270049463000FFF7CBFF3900020030002A
:1015B000FFF774FF0400D3E7424641465D19AF7060
:1015C0009A185B5C002B00D06B701470E9E7C04682
:1015D000F0B557464546DE464E46E0B50D006B0079
:1015E00001685B19DF1E0400C85D83B00192CA194F
:1015F00000284CD043001B18033BCB185E78B44640
:10160000002E16D1019E002E3ED0E67B002E04D087
:1016100073009B19CB18033B5D70E57300282FD135
:101620000023537003B0F0BCBB46B246A946A046A7
:10163000F0BD72006244033A89184A78904600224D
:101640004A7091465A70010032002000FFF726FFD1
:1016500043468246002B07D05B0021684344033B8E
:10166000CB185A78002A16D1424651462000FFF77F
:1016700015FF2168019BCA19002BC6D10028CFD0C5
:1016800043001B18033BCB1800219970C8E7019B4E
:10169000002BBAD1C4E750008018033809184878E5
:1016A000834648464870587041462000FFF7F6FED2
:1016B000594680462000FFF743FF414602002000C4
:1016C000FFF7ECFE8046CFE7F0B557464546DE46CD
:1016D0004E46E0B583B00191457B04006B00006885
:1016E0005B19DF1EC15DC21900294ED04B005B188B
:1016F000033BC3185E78B446002E18D1019E002E1D
:1017000040D0E67B002E04D073009B19C318033B26
:101710005D70E573002931D1002328005370617397
:1017200003B0F0BCBB46B246A946A046F0BD72006D
:101730006244033A801842789046002242709146F3
:101740005A7020003200FFF7A9FE43468246002B64
:1017500007D05B0021684344033BCB185A78002A2A
:1017600017D1424651462000FFF798FE019B010029
:101770002068C219002BC4D10029CDD04B005B18C2
:10178000033BC31800209870C6E7019B002BB8D11B
:10179000C2E7500080180338091848788346484645
:1017A0004870587041462000FFF778FE5946804641
:1017B0002000FFF7C5FE414602002000FFF76EFE45
:1017C0008046CEE770B5040000292CD0437B8B42C5
:1017D0002ED0056848004018033828188278002A5F
:1017E00021D053009B18033BEA5CEE188A4202D1D9
:1017F0001BE0002A08D053009B18033BEB185A78D3
:101800008A42F6D142785A700023012283704370D5
:101810002000FFF7DDFE617B02002000FFF73EFEA7
:101820006073012000E0002070BD43783370EBE767
:1018300001221900FFF7CCFE60730120F4E7C046D7
:1018400010B50400FFF72CF801002000FFF7BEF9E7
:10185000FF232371BFF35F8F10BDC04610B5040096
:10186000FFF71EF801002000FFF7B0F9FF23A38067
:10187000BFF35F8F10BDC046F8B5040006200D0011
:1018800000F01CFB002844D02A4B2B49E21853429D
:101890005A418023DB039C469205284B62441A6020
:1018A000274B1A6010008B689843FBD1214B802195
:1018B000E3185A425341234A5B00490099520620DB
:1018C00000F0FCFA2900C00001F0F0FEC30921D1AC
:1018D00040270121260080256162A36200232C3667
:1018E000AD0135432B60062000F0E8FA3900800096
:1018F00001F0DCFE6023E26A53406E221A4080232E
:101900005B0133431A60104B236310232B600D3BA4
:10191000A364F8BD0D4A934203D900230C4F0D492F
:10192000D8E77F221040013040089F0119003F187E
:101930000300CFE70080FCBF00C0004000E0004093
:1019400000F000406820002001030000FEFF0000BE
:10195000C0FF3F00FFFF00002C4B2D4A70B51A60FE
:101960002C4A2D4B2D491A6014008B689C43FBD1E7
:101970002B4D2C4EB54208D2013E761BB60808CD41
:10198000984723000134B342F9D100F039F9264ACF
:10199000214B1A60214A9368DB43DB01DD09002BF0
:1019A000F9D14022214B224C224E9A675A671A677E
:1019B000DA66B44208D223682000002B20D0083415
:1019C000FFF74CFFB442F6D31B4E1C4CC022A1685B
:1019D000300002F029FDA660FEF754FFFFF7E4F89F
:1019E000FFF720FB164C174EB44208D2013E361BBF
:1019F000B60808CC98472B0001359E42F9D170BD3E
:101A00000834FFF71DFFB442D5D3DDE700E0004006
:101A1000BFCDFBFEFE7F3C0000F0004000C0004058
:101A2000901B0020A01B0020FFFFFF0100F00140E1
:101A3000881B0020901B00200000002000ED00E02B
:101A4000A01B0020B01B002000BEFDE7094A0300D8
:101A50001068002805D00849C3188B4207D81360C6
:101A6000704706480449C31810608B42F7D901201B
:101A70004042F5E7382000200000042074200020B8
:101A800000BEFDE70FB400B5084883B002F040FE89
:101A9000049B002B07D005A91800019101F08CFDD3
:101AA000034802F035FE00BEFDE7C046FCFE001014
:101AB0003C04011010B50148FFF7E4FF0CFF0010D3
:101AC000084A43009446C0221B189B0063449201BD
:101AD0001343802212011A600022034B8000C2507F
:101AE0007047C04600800040C41F0020F0B5454646
:101AF000DE4657464E46E0B583B001920C9A05008B
:101B000088469A4200D974E01A0E93461E023000AD
:101B1000002359460C9A01F00BFE374B6C009C4693
:101B20006419A400644463680700834200D26060C3
:101B30002B1FDBB29946012B35D9C02380229B0194
:101B4000234312011A602D4BAD0059599A460029C2
:101B500005D0586901F0AAFD01300138FDD1019A84
:101B6000236852015340E0221A4080235B01234343
:101B70001A604A46012A2FD9802380229B012343E1
:101B800012011A60300000233A005946676001F0E4
:101B9000CFFD53465851012003B0F0BCBB46B246BE
:101BA000A946A046F0BD4346012BC6D1C02303225F
:101BB0009B0123431A60023AA3681A42FCD0019A9F
:101BC000236852015A40E0231A4080235B012343DB
:101BD0001A600A4AAD0092464246216851400322EB
:101BE0000A401A60012243469A40A3681A42FCD078
:101BF000C2E70020D0E7C04600800040C41F00209C
:101C000030B50C2083B000F0BBF9FEF733FE00289E
:101C10000ED0944B944A1A605A609A60DA601A6146
:101C20005A619A61DA611A62904A5A6203B030BD11
:101C30008F4CA06700F0ACF901228E4B1A60636CE8
:101C4000012BFCD103228C4B1A60894A936B012B28
:101C5000FCD101330121894A89480093043300F003
:101C600033F90523874A00930121874800F02CF9B6
:101C7000864B5A68FF2A02D8802252005A6080227E
:101C8000784C7D4B21691201804D1A60002905D0E6
:101C9000606901F00BFD01300138FDD1E0217B4B83
:101CA00002201A681140802252012A4311601968EB
:101CB000484003210140116004219A681142FCD080
:101CC0008022802192012A43090111608022520062
:101CD0005A606F4B23616F4B5968FF2900D85A60D7
:101CE0000321644A6B4B116002399A681142FCD09F
:101CF000E0201A681040802252011A4310601868D0
:101D00004840032101400220116062498A68104264
:101D1000FCD0802292011343802212011A6080229B
:101D20005D4B52004A6063615C4B5968FF2900D8E3
:101D30005A6080225A4BE1691201584D1A600029FD
:101D400005D0606901F0B2FC01300138FDD1E0221C
:101D500052490B681A4080235B012B431A60802391
:101D600080229B012B4312011A6080223E4B5200BD
:101D70004A60E3614B4B5968FF2900D85A608022C2
:101D8000494B216A1201474D1A60002905D060694C
:101D900001F08CFC01300138FDD1E02241490B6893
:101DA0001A4080235B012B431A60802380229B0111
:101DB0002B4312011A60802380225B004B602A4B68
:101DC000D2022362394B5968914200D25A60802274
:101DD000374B616A1201354D1A60002905D06069E0
:101DE00001F064FC01300138FDD1E0222F490B687D
:101DF0001A4080235B012B431A60802380229B01C1
:101E00002B4312011A608023DB024B60174B636285
:101E1000284B5A68FF2A02D8802252005A6080223A
:101E2000254BA1691201234D1A60002905D0606974
:101E300001F03CFC01300138FDD1E0221D490B6866
:101E40001A4080235B012B431A60802380229B0170
:101E50002B4312011A6080235B004B600E4BA36181
:101E6000E4E6C046C41F0020006CDC021BB7000083
:101E7000008000403CB0004030B00040002F685966
:101E800000800240008C864700C002403080004045
:101E9000001BB7003C80004040597307548000404D
:101EA00054B000406080004060B000406C80004052
:101EB0006CB000404880004048B00040014B8000BA
:101EC000C0587047C41F0020F0B5C646040000B5D6
:101ED0000C2090461F000E0001F0E8FB4101091A9A
:101EE0008D01691AC90009188901404601F0DEFB1D
:101EF000069B3F041A0323681743002B22DB1A4B6F
:101F00001A4DE21853425A4180235B019C4612034A
:101F1000174B62441A60174B1A601100AB68994363
:101F2000FBD1C022231D92011A4321232660A06009
:101F300013602368002BFCDA0823E760136080BC81
:101F4000B846F0BD3F2322681340B342D7D1A368FF
:101F50001B051B0D8342D2D1EE22E368D20213404F
:101F6000BB42CCD1EBE7C0460040FDBF00C0004003
:101F700000E0004000F000402D2343607047C04661
:101F80008023024A9B000343D362704700800540D0
:101F9000AA23064A1B0113602F230549D360054B72
:101FA00019605368002BFCDA7047C04600400240BD
:101FB00000B0FA0000600240054A06491368194063
:101FC000054B0B4313605368002BFCDB7047C04686
:101FD00000400240FF0F00FF00E0D100034A044B25
:101FE00093605368002BFCDA7047C0460040024003
:101FF000616D6F639A4200D2885470477047C04643
:10200000F8B557464E464546DE46E0B599460A9B2A
:1020100007009A460D9B8846934615000B9E9B072A
:1020200010D10C9B9E420DD29D1B14000E005D44EE
:1020300022004B46013431002020B847A542F7D199
:10204000B0460B9E002E27D0444675195346AA1B56
:10205000013E985D21004B46B847002EF6D1230083
:102060002C0098460D9B9B070FD55B46E51A0C9BF1
:10207000AB420AD94646984622004B463100202002
:102080000135B8470134A845F6D82000F0BCBB465E
:10209000B246A946A046F8BD2C00E3E7F0B54F468E
:1020A0004646D646C0B584B098460EAB1B78129F04
:1020B000994694460D9C109B119EBA0725D4002E7C
:1020C0004BD19C4200D3BFE001223A4092461F2CE4
:1020D00000D9B8E00C9A551E302201E0202C03D024
:1020E00001342A55A342F9D85246002A0DD0A642FF
:1020F0000BD9202C44D00C9A551E302201E0202C04
:102100003ED001342A55B442F9D1FA064DD57A05AC
:102110003FD4002C39D10F9B102B00D179E00F9BBD
:10212000022B00D18AE030230C9A012413704B4615
:10213000002B3FD02D230C9A135501340C9B624683
:1021400000930397434602960194FFF759FF04B0AA
:10215000E0BCBA46B146A846F0BD012215003D409C
:10216000AA463A422FD04A46002A02D10C323A42BD
:1021700000D0013E9C42BAD21F2CABD9202E27D9C9
:102180002024FA06DAD57A0503D4A3422DD0A6423C
:102190002BD00F9B102B32D0022B20D0202CCDD057
:1021A00030220C9B1B191A700134202CC6D04B46D0
:1021B000002BBFD17B070DD43B07BFD520230C9A42
:1021C00013550134BAE79C429FD21F2C00D881E7F7
:1021D00020249AE72B230C9A13550134AEE7202CC8
:1021E000ACD00C9B1B1901343AE0631E012C92D039
:1021F0000F9A102A2AD0022A2FD01C00D0E7BB0643
:102200000ED4202C9AD00C9B1A1901347823137009
:10221000C4E7BB060DD478230C9A01241370BFE7E2
:10222000202C00D18AE758220C9B1B191A7001340C
:10223000B4E758230C9A01241370B1E70C9A603369
:1022400001241370ACE7202400265EE7023CBA06A6
:10225000E9D40C9A12191C00D8E70C9A9246534400
:1022600062221A709AE7C04610B5002800D110BD4E
:1022700002F0FEF9FBE7C0460B0010B5002802D0C3
:1022800049681B68984710BDF0B5DE4657464E4674
:102290004546E0B59BB09B46249B89469846259BC6
:1022A0000B900C924046424619009A4601F0CFFC32
:1022B000002800D0D8E0012240465146774B5242D8
:1022C00001F0C0FC002800D0CEE00122404651467B
:1022D000734B524201F0A0FC002800D0C4E0002261
:1022E00000234046514601F097FC002800D0B9E198
:1022F000424653460A9209938023289ADB001A40EB
:102300000E92289A1A4201D1062326930A9A099B13
:102310001600134300D0C7E0289B002500261B05AC
:1023200000D49BE100230D93269A0D9B9A4200DC7A
:102330009FE1D01A431E26938023289ADB001A437C
:102340000023002728920D93279B0024BB4200D92D
:10235000DC1B0223289A1A400E92289A134203D0BB
:102360007B427B415B421C400D9B002B07D00A98AF
:1023700009992A00330001F0EEFB0A90099100222E
:1023800000234046514601F047FC002805D080203C
:1023900000068446099961440991289A414B0B9D96
:1023A00013400493269B0A9A0293099B039400927C
:1023B000019349465B4628000C9A00F08BF9040013
:1023C000002F62D0289B220098061F23C017984335
:1023D000631C984649465B466530A8470D9B00251F
:1023E000DA179C18DB0F9A465440013F01E0202D7C
:1023F00013D00AAA94461F23200063440A21013502
:102400005E1901F053F93031317020000A2101F0DA
:102410004DF926000400092EE9D805230693002370
:1024200004930A330393534605970B9F029312AB11
:10243000009342465B46494638000195FFF72EFE61
:102440000E9B0400002B20D00C9BC51A279BAB428F
:102450001BD91E0022005B46494620200135B847A3
:102460000134AE42F6D810E0289B42460493279BE5
:1024700049460393269B0B9802935346009201937F
:102480005B460C9A00F026F9040020001BB0F0BC5B
:10249000BB46B246A946A046F0BDC046FFFFEF7F4F
:1024A000FFFFEFFFFFF7FFFF734B099F9C4678008C
:1024B000400D604401F0DEFB704A714B01F069FB96
:1024C000704A714B01F03EFB3B03704A1B0B1A43F1
:1024D00004000D00300011006D4B002201F029FBBB
:1024E0006C4A6D4B01F055FB02000B0020002900E7
:1024F00001F028FB01F0D6FB0D9001F0BBFB674A11
:10250000674B04000D0001F044FB0022654B01F015
:1025100019FB01F0C7FB644A0600644B2000290048
:1025200001F037FB040030000D000F9601F0A2FB14
:102530005F4A604B01F02DFB02000B0020002900D8
:1025400001F0F7FA02000B0006000F0001F021FB7A
:10255000320004000D003B003000390001F0F2FAB7
:10256000002210901191544B2000290001F0F3FA41
:102570000022524B01F0E6FA02000B002000290075
:1025800001F0E9FA00224E4B01F0DCFA02000B00E8
:102590002000290001F0DFFA0D0080210400320044
:1025A0003B000020C90501F0C4FA02000B00200026
:1025B000290001F0C7FA02000B001098119901F0F0
:1025C000CAFA0022314B01F0BDFA3E4B0F9C9C46EB
:1025D00064440022230501F0DCFA05000E0002002D
:1025E0000B000A98099901F017FB00280AD00D9BEF
:1025F0002800013B31000D930022304B01F0ABFA73
:1026000005000E00C6270D992B0063318F42BF4194
:1026100028997F420437090500D495E6334300D159
:1026200082E6099C284A2100284B0A9801F002FB07
:10263000002808D000222100254B0A9801F0ECFA6E
:10264000002800D070E6269B002B00D17CE60E9B74
:102650005A1E9341269AD31A269375E6002304271F
:102660000D9371E643460A9380231B065344099356
:1026700042E6002326935FE601FCFFFFFB799F50B3
:102680001344D33FB3C8608B288AC63F0000F03F95
:102690000000F83F61436F63A787D23F71A37909B8
:1026A0004F930A400000E03F1655B5BBB16B0240A6
:1026B000EF39FAFE422EE63F00002C400000244095
:1026C00000001840FF0300002D431CEBE2361A3FC8
:1026D00080842E41F0B54E46DE4657464546E0B56D
:1026E00097B09946209E219F229B8346984607914A
:1026F0000C923B0032003000390001F0A8FA0028AB
:1027000000D0A9E1012230003900CA4B524201F049
:1027100083FA002800D0E1E0012230003900C64BE6
:10272000524201F08FFA002800D0B7E000223000BA
:102730003900C24B01F086FA002800D099E000224F
:1027400030003900BE4B01F067FA002800D090E05D
:10275000002200233000390001F05EFA002800D08A
:10276000B1E000230D93249B5B0501D4062398461A
:1027700008AB9C461722002430234146624404E003
:10278000013413550139202C01D00929F8D8884685
:102790003000390001F086FA4346DA00A94B050003
:1027A0009B181A685B680892099301F063FA0200AB
:1027B0000B003000390001F0BCF9089A099B01F0C8
:1027C000E8F90A900B9101F091FA824601F04EFA75
:1027D00002000B000A980B9901F0ABF900229A4B0A
:1027E0000A900B9101F02EFA002800D1C0E00123DD
:1027F0009C46E244504601F039FA02000B0008986A
:10280000099901F00FFA002802D000239A460135F9
:102810004346002B6AD008AB17269C4608956644B1
:10282000554614E001235B4243440A2128009A469E
:1028300000F03CFF013430313719397028000A218B
:1028400000F034FF092D00D8D0E0D0460500202C40
:10285000E8D10EAB98460323249A1340012B00D1F4
:1028600096E02023249A01930392239A43460292EE
:102870001EE0249B58460493239B009601970393E4
:1028800043460C9A029307994B46FFF7FDFC17B09D
:10289000F0BCBB46B246A946A046F0BD249B5B07F0
:1028A0000ED40322694B249901920391239902913A
:1028B000009358464B460C9A0799FFF7A1FBE6E7B1
:1028C0000422634BEFE73B0032000020002101F0BF
:1028D00030F9012306000F000D9344E7249B039376
:1028E000239B0293042301935A4BE1E7280001F054
:1028F000C1F902000B003000390001F01AF9524B07
:10290000002206000F0001F087F90EAB9846002860
:102910000AD10022300039004B4B01F093F9002816
:1029200002D1EB0700D50135202C94D008AA94469B
:102930001723280063440A2101341E1900F08EFE7B
:102940003031280031700A2100F088FE051EEBD1DD
:102950000323249A1340012B1BD0202C00D180E7A5
:102960000D9B002B35D02D224146631C0A5579E77B
:1029700000220A980B99344B01F04EF9002800D040
:1029800046E75346002B51D101239C46E2443FE7E2
:102990002024239B002BE0D00D9B002B03D1249AF5
:1029A0000C33134202D0239B013B2393239BA3426E
:1029B000D3D908AB9C46172230236244202C00D187
:1029C0004FE72399013413558C42C6D0202CF8D1FF
:1029D00047E7249B5B0724D4249A2300120700D4E2
:1029E00040E72022414601330A553BE75746089D00
:1029F000202C00D12DE7220030214046002F09D0A5
:102A00000132B154202A00D123E7D3431B191B18EC
:102A1000002BF5D10EAB98462E234146541C8B5407
:102A200082E72B224146631C0A551BE7DB0700D4D3
:102A3000EEE6A9E7FFFFEFFFFFFFEF7F65CDCD419A
:102A400065CDCDC1100101100000E03F18FF00105E
:102A50001CFF001028FF0010249B0393239B02936C
:102A600003230193004B23E724FF0010F0B5DE465B
:102A70004E4657464546E0B59FB01C00289B914600
:102A80000993C94AC94B8B4608901A60002900D1A6
:102A900018E2002320789A46002800D11AE2260086
:102AA0001D005C460AE02A006F1C4B46089D210071
:102AB000A8473D0001363078002870D02528F2D193
:102AC00010239B46083B9A46043B9846023B002154
:102AD0009C46721C107816000300203BDBB2102BC2
:102AE00003D8B34F9B00FB589F460300303B092B94
:102AF00032D900230A932A2868D0002398462E282A
:102B00003ED00300683BDBB2122B1CD8A94A9B00C5
:102B1000D3589F46012301321943DBE76346013254
:102B20001943D7E7434601321943D3E75B460132E5
:102B30001943CFE7534601321943CBE780235B00AB
:102B40007078194301360300253BDBB2532BAAD81A
:102B5000994A9B00D3589F4600270300B800C0192C
:102B600001364000C018337830381A00303A070078
:102B7000092AF3D90A901800002398462E28C0D1BC
:102B800080237078DB0019430300303B721C092B53
:102B900000D8A1E12A2800D1B2E11600B1E7A3468E
:102BA000AA462C00D14503D801235B424B449A46E8
:102BB0004B46524659460020089DA84720001FB0AA
:102BC000F0BCBB46B246A946A046F0BD099B40CB2F
:102BD0000A96002E03DB50780993561C8DE728389F
:102BE000014370420A9009935078561C85E7782873
:102BF00000D1DFE1582800D14CE26F2800D14FE32B
:102C0000622801D100F030FC10230A009A430B9295
:102C1000692801D000F0A9FC0A230C934B0500D5CC
:102C2000D0E10B9A802311009B0019408B461A4279
:102C300000D0A1E2802311005B0019408A461A42AD
:102C400000D0B6E313005B0600D5EDE2130009994E
:102C50001B0601D400F076FC08C91BB2D8171A185D
:102C6000424092B209919346DA0F1292002B09D199
:102C7000802310220B99DB000B4091430B91002B1A
:102C800000D0E4E20B9A6123920600D541230EA9FD
:102C90001F228C46DBB262440A3B5F461395A34673
:102CA00055460C9CB2460D9316000AE03033DBB259
:102CB00001357355A74200D2EDE2202D00D1EAE2A2
:102CC00007002100380000F0F1FCCBB20929EDD952
:102CD0000D9A94466344DBB2EAE780239B00707848
:102CE000194301362FE77078682800D1CDE18023A1
:102CF0000136194327E770786C2800D1BFE18023A3
:102D00005B00194301361EE7462800D19BE10722EC
:102D1000099B0491073393430A9A19000392424690
:102D200002920CC908980092019309912A004B461F
:102D30002100FFF7CFFC01360500BCE62A006F1C1E
:102D40004B46089D21002520A84701363D00B2E6EC
:102D50008B0700D4ADE1099B2A009A466B1C98466C
:102D6000534601CB21009A46089F4B46C0B2B84754
:102D70000A9B9C466544012B00D886E2089B474687
:102D8000B04626004C4699463A00230001373100F0
:102D90002020C847AF42F7D1A146534634004646EB
:102DA0000993013687E6C0466D2A00103C200020BA
:102DB00030FF001074FF0010C0FF0010099B04CB0F
:102DC0009B4643460992002B00D1C6E013789C46EF
:102DD000002B00D1BDE34346013B099A0133D018D3
:102DE0000A9F130001E0834203D05A780133002A7E
:102DF000F9D1099A0A979B1A0B9380230A00DB00EA
:102E00001A400C92194204D00B9B434501D943460A
:102E10000B9302231A000A400D920B4200D187E166
:102E20006046002800D168E10C9B002B00D10DE129
:102E3000A844C246099B57465B1B9846089BB2466E
:102E40002A0026004C46994609E023003100551C13
:102E5000C8474346585D002800D126E12A00974222
:102E6000F3D1A1463D00340056460D9B002B00D007
:102E700043E15B46013609931DE6099B1A0008CA27
:102E80009246002B48D0212211438B460EA884463F
:102E90001F216144099500220F27A4460D0002E07E
:102EA000202A0CD00B003C001C4020003730092C9D
:102EB00000D807380132A85419090F2BF0D86446FE
:102EC000099D32E0DC4B2078089300239A460028C5
:102ED00000D0E4E5002465E6434606000A9F98001A
:102EE000C0180132400080191678030030003038D5
:102EF000303B0928F3D93000984616000A9700E6BF
:102F0000099B023604CB9046D2434046D21710406C
:102F1000804609933078F4E510220800904311327E
:102F20001043834600224905B0D55B46069308232B
:102F3000059343460493102303930023029316AB97
:102F4000019200932A004B4621000898FFF7A6F84B
:102F50005346050001360993ADE513789C46002BD6
:102F600000D1F7E202235B4237E7202302009A43B5
:102F7000472A04D180231B01194302239843452883
:102F800001D1202319430722099B0491073393435E
:102F90000A9A19000392424602920CC908980092BC
:102FA000019309912A004B462100FFF76DF9013684
:102FB000050080E510230C930C230A009A430B9222
:102FC0004B0503D501230B9A9A430B92692800D134
:102FD00027E6642800D124E60B9A802311009B0089
:102FE00019408B461A4200D066E1802311005B0035
:102FF00019408A461A4200D039E213005B0600D518
:103000003CE113001B0600D4A6E2099B04CB12048A
:10301000120C934609935B46002B00D09AE10B9A61
:103020001033110099430B91520500D492E1002313
:103030009A460B9B06930A9B0593434604930C9B6D
:10304000039300230CE12023194360E6099B0A9AAD
:103050005B1B98464B4691461F00B2462600089CD3
:103060002A003B003100A04743460135585D002847
:10307000F6D14A463400B94656460A92F5E6C023D0
:103080009B00B078194302365DE5C023B078194340
:10309000023658E50C230A009A4314331A43103BB6
:1030A0000B920C934B058DD496E7A14634005646FF
:1030B000DBE60A9A012A00D853E26B1E9F18089B90
:1030C000B04626004C4699462A00230001353100BF
:1030D0002020C847BD42F7D1A14634004646099B8F
:1030E0003A0001CB210098467D1C4B46089FC0B298
:1030F000B847434601360993DDE40B9B0A9AA8467C
:103100009A4200D8B5E694466544ED1A089B4746B6
:10311000B04626004C4699463A002300013731005C
:103120002020C847AF42F7D1A14634004646A0E66A
:103130000B9A0A99531C914200D814E24B199B1A1E
:103140001F00089BB24626004C4699462A002300E1
:10315000013531002020C847BD42F7D10A9BA14666
:1031600001330B93099B34001B7856469C466046FE
:10317000002800D058E67CE60722099B07339343DA
:10318000013294469C4462465F6809921A68FB17B4
:103190001093119310981199030053400E930B0054
:1031A0007B400F9394460E9A0F9B121A8B410E92FE
:1031B0000F93FB0F6246129300233A439B463DD088
:1031C0000B9A6123920600D541230022DBB20EA99F
:1031D0000A3B8C4692460D9343461F326244139538
:1031E000159655460E9E0F9FA24690460C9C149332
:1031F0000CE03032D2B2434601355A55BB4500D1BE
:103200008AE1202D00D18AE106000F002200002370
:103210003000390000F08CFAD2B2092AE9D90D9BAE
:103220009C466244D2B2E6E7FF23099904C91340E1
:103230001A00099117E5C046FD1F00100B9A1033C4
:10324000110099430B915205BAD500239A460B9B66
:1032500006930A9B0593434604930C9B0393129B8E
:1032600002935346019316AB2A00009321004B466C
:103270000898FEF713FF013605001CE4FF22099BA6
:1032800002CB11408B460993C5E653464546099348
:103290000136FFF710FC56465C46AA46139DD6E75A
:1032A00008230C930B910B99642800D084E60B9BA8
:1032B0005B0500D586E6B4E40722099B07339343F8
:1032C000013294469C44624609921A685B68100079
:1032D0009B4613005A46134307D10B9A1033110033
:1032E00099430B91520500D5A1E60B9A61239206F2
:1032F00000D541230022DBB20EA90A3B8C46924640
:103300000D9343461F3262445F461295A3465546CD
:103310000400B24690460C9E13930DE03032D2B2B8
:10332000434601355A550023BB4200D100E1202D10
:1033300000D100E104000F0032000023200039001A
:1033400000F0F6F9D2B2092AE8D90D9B9C466244F6
:10335000D2B2E5E70B9A6123920600D54123DBB296
:103360000EA90A3B1F228C460D93230062445C4643
:103370001295170055469B46B2460C9E08E0303326
:10338000DBB201357B55B4420ED3202D0CD00400A6
:103390003100200000F08AF9CBB20929EFD90D9A4B
:1033A00094466344DBB2ECE756465C46AA46129D5F
:1033B0003FE6099B1A0008CAD91713925A184A40C7
:1033C0009246DA0F1292002B08D1802310220B991B
:1033D000DB000B4091430B91002B2BD10B9A612307
:1033E000920600D541230EAA1F279446DBB20A3B62
:1033F0000D9567445D460993A3465446B2460C9E1C
:1034000008E03033DBB201357B55B4420ED3202DBA
:103410000CD004003100200000F048F9CBB209299B
:10342000EFD9099A94466344DBB2ECE756465C4612
:10343000AB460D9D0B9B2A0006930A9B210005932A
:10344000434604930C9B08980393129B0136029306
:103450005B46019316AB00934B46FEF71FFE139B92
:1034600005000993FFF727FB02230C931AE7099B3A
:1034700004CB92461293002A08D1802310220B9984
:10348000DB000B4091430B91002B2BD10B9A612356
:10349000920600D541230EAA1F279446DBB20A3BB1
:1034A0000D9567445D460993A3465446B2460C9E6B
:1034B00008E03033DBB201357B55B4420ED3202D0A
:1034C0000CD004003100200000F0F0F8CBB2092944
:1034D000EFD9099A94466344DBB2ECE756465C4662
:1034E000AB460D9D0B9B2A0006930A9B210005937A
:1034F000434604930C9B08980393002302935B4676
:10350000019316AB00934B46FEF7C8FD129B0500D6
:1035100009930136FFF7CFFAB44200D871E6149B45
:1035200054460E960F97AA469846159E139D8EE612
:10353000A64200D8FBE6139B56469846AA465C4630
:10354000129D76E508C9D8171A1842400991FFF76D
:103550008AFB00230B9350E4099B04CB9346099309
:1035600059E52F00BBE50B9301E6063B0C939AE669
:103570000EB4012210B585B007AC08CC0100009450
:10358000524204480394FFF771FA05B010BC08BC1E
:1035900003B01847F51F001000B585B00391012155
:1035A00002900093034813004A4202A9FFF75EFA13
:1035B00005B000BD7922001010B5094A0300146857
:1035C00084B0002C08D0012200910648524203A981
:1035D000A047012004B010BD01F09AF80020F9E7DF
:1035E0003C2000206922001001480421014B1847AB
:1035F0002013002019360010142310B5010018887C
:1036000004331B88984710BD162310B50100188895
:1036100002331B88984710BDF8B54746CE4680B5A3
:103620000F1E19D0142399460433040000250126E7
:1036300098464B461888434621681B88984701C422
:10364000431E9841013540420640AF42F1D130005F
:10365000C0BCB946B046F8BD0126F8E7124A936FE0
:103660009B0815D29066D166002905D0FFE7FFE7D9
:10367000FFE7516F106F704704B580210906C2172C
:103680005140002800D0C8430CF076FB002104BD57
:10369000F0B5146E556E576F166FFFF7E3FF1466A3
:1036A000556657671667F0BD000000D0114A936F4A
:1036B0009B0813D210665166002905D0FFE7FFE78B
:1036C000FFE7516F106F704704B5002801D000204C
:1036D000C0430CF051FB002104BDC046F0B5146E90
:1036E000556E576F166FFFF7E5FF146655665767FF
:1036F0001667F0BD000000D094464E4A926F9208C3
:10370000624601D230E0C046F0B54A4EB56F6D0852
:10371000FCD3346E756E776F366F00F025F89446E3
:10372000444A14665566576716676246F0BDC04640
:103730009446404A926F9208624601D258E0C046D1
:10374000F0B53C4EB56F6D08FCD3346E756E776F77
:10375000366F00F04DF89446364A14665566576742
:1037600016676246F0BDC046002B24DB11D000294D
:103770003EDA00B5C943404200D1013100F038F8CB
:10378000C943404200D10131DB43524200D10133F1
:1037900000BD002AEBD1002801D1002905D000206E
:1037A000C90FC90701D1C043410800B50CF0ACFAFC
:1037B0000022002300BD00B500290ADBDB43524292
:1037C00000D1013300F014F8C943404200D1013167
:1037D00000BDC943404200D10131DB43524200D118
:1037E000013300F005F8DB43524200D1013300BD44
:1037F000002923D1002B18D1002A0CD0BC460D4F34
:1038000038667A6600210023FFE7FFE7FFE77A6F5B
:10381000386F67467047002801D00748010000B59F
:103820000CF072FA0022002300BD02000B00002001
:1038300000217047000000D0FFFFFFFF002B00D0E9
:10384000BFE0130C28D1002AE7D080B4114F3966AD
:103850007A66FFE7FFE730B4040C7B6F396F1B0417
:1038600023433B667A66FFE7FFE7FFE7C04684B283
:103870007B6F3D6F1B0423433B667A66FFE7FFE7E0
:10388000C04600232C042D0C7A6F386F0019694153
:10389000B0BC7047000000D0F0B594460025140E6F
:1038A00001D112020835140F01D112010435940F11
:1038B00001D192000235D40F01D152000135D40B51
:1038C0000134254F7C66254C3C660E0C93B2FFE715
:1038D000FFE7FFE73C6F6643360C7703BE46734352
:1038E000DF0B5B04C01AB941130C7343DB18C91A10
:1038F000CE086643360CB64493B273431F0F1B01C8
:10390000C01AB941130C73431F0B1B05C01AB941F0
:10391000860D8F023E436643360C092D24DB520A86
:103920007243801A7703460A6643360C16235B1BE4
:10393000DE40DF40BF1964466643821B7046043593
:1039400006330100D940A840C01900D30131A2427A
:1039500006D20023F0BD0000000000D0FFFFFFFFF3
:10396000121B0130F3D3F1E709277F1BFE406446A9
:10397000A2B27243801A00D20139220C7243130C96
:103980001204821A99410B00704604351337010066
:10399000F940A840801900D30131002B02D1A24286
:1039A0000AD2F0BD013000D30131121BFAD2013B23
:1039B000F8D1A24200D2F0BD013000D30131121B78
:1039C000F7E7F0B51C0C00D080E00CB400251C0A11
:1039D00004D11B02160E3343120208351C0B04D10E
:1039E0001B01160F3343120104359C0B04D19B00BD
:1039F000960F334392000235DC0B02D192185B41E3
:103A000001351C00971864410134464F7C66464CD2
:103A10003C660E0CFFE7FFE7FFE7C0463C6F6643DE
:103A2000360C7703BE4697B27743C01B00D20139EC
:103A3000C01B00D201399FB27743C91BC91B170CA9
:103A400077437E04FF0B801BB941CE086643360CDA
:103A50000C2D33DBB644120B1F053A431B0B97B2F8
:103A60007743C01B00D201399FB27743C91B170CA3
:103A700077433E043F0C801BB941860D8F023E43C5
:103A8000664329277F1BFE400C3D7746AF40BF1998
:103A900030BCA2B2ABB272437343801A9941220C7C
:103AA0007243130C1204801A994102000B00013773
:103AB000001BA941F9D2781E0021F0BD0C277F1B05
:103AC000FE4077467F0BAF40FF19E0E700245D1C06
:103AD00007D0144F7D663966FFE7FFE7FFE7FFE792
:103AE0003C6F95B29EB265436643401BB141150CD5
:103AF0001E0C6543664336042F0C3E432D04401BC9
:103B0000B141994204D202000B0020000021F0BD17
:103B100001D19042F7D3801A994101349942F2D3EE
:103B2000F6E70000000000D0FFFFFFFF48404140E3
:103B3000484018B41B4B5B68FC46019308BD04DF8A
:103B4000CB3D001018B4174B1B68FC46019308BD11
:103B500000DFD53D00109446134A926F920809D2B7
:103B6000624618B40F4BDB68FC46019308BD0CDFBE
:103B70008D4000100C4AF0B5146E556E576F166FDD
:103B80006246FFF7EEFF084A1466556657671667E8
:103B9000F0BD18B4034B9B68FC46019308BD08DFD9
:103BA000313F0010B81C0020000000D0FFB550408D
:103BB0004240504059404B40594000E0FFB5154F3E
:103BC0004C00640D03D0BC4204D10C0314D8002077
:103BD000090D09055C00640D03D0BC4204D11C032F
:103BE0000AD800221B0D1B0501264B4009D44B406F
:103BF00003D58B4200D18242FFBD9942FCD1904255
:103C0000FFBD0B43DB1803431343F5D0C9434918E9
:103C1000FFBD0000FF07000000B5FFF7CFFF8041A8
:103C200000BDC04600B5FFF7C9FF01D9002000BDA7
:103C3000012000BD00B5FFF7B9FF01D9002000BD8C
:103C4000012000BD00B5FFF7B1FF804100BD01209C
:103C500040054A00121804D85A00121801D8002052
:103C600070470120704700207047000000210028A5
:103C700005D17047C1174840401AFAD0C90713B59B
:103C8000064B1B6898470CBC441CA2401005120B45
:103C90000349091B09051943114310BD5020002099
:103CA0001F04000010B54C00620D8023D218DB0009
:103CB000D21A5B057E2A10DD9E3A13DACC1709036F
:103CC000490819435242D140640001341532202A78
:103CD00005DAD0400843604310BD002010BD0846FF
:103CE000604310BDC80FC018013810BD18B4044B94
:103CF0005B6AFC46019308BD24DF3D4200100000D2
:103D0000B81C0020132370B51D78012D15D010DDCF
:103D10001C48FFF779FC1C4C01008022200000F0B9
:103D200083FB022D06D01948FFF766FC184B18607C
:103D300070BD154C174BA364F5E7164B124C23606E
:103D40006360A360E36023616361A361E361236255
:103D50006362A362E36223636363A363E363236435
:103D60006364A364E36423656365A365E365236615
:103D70006366A366E36623676367A367E367A36479
:103D8000D1E7C04653440000B81C00204C3300006B
:103D900050200020993D001007B5604601880A0AAE
:103DA0000230DF2AFAD1C9B2820804D302884088DF
:103DB0000004104300E00068014A5050039007BD22
:103DC000B81C00200FB403BC0CBCF0B50124E40700
:103DD000634000E0F0B50C0DCF0F661E3605891B61
:103DE000640503D3C943404200D30131640D03D0BD
:103DF000661CF60A07D0E41B00207F00791C8907A7
:103E00008912803C24031D0DDF0F6E1E36059B1B9F
:103E10006D0503D3DB43524200D301336D0D03D054
:103E20006E1CF60A07D0ED1B00227F007B1C9B074F
:103E30009B12803D2D032F1B661B58D4A446202EB9
:103E400046DA20371400BC401D00BD40F24033412B
:103E50002A4380185941CB0F05D0C943C0430022E3
:103E600064425041514162464D0D28D10D0D07D19C
:103E700000281FD0241940414941013A0D0DF9D0C5
:103E8000640006D3013000D30131002C01D1400879
:103E90004000013A0BD4941CE40A04D112051144E9
:103EA000DB071944F0BDD907204B194300E0D907BF
:103EB0000020F0BD0029DDD1002CDBD1F0BD0132A6
:103EC000C6074008CD0728434908002EE1D0D9E7AE
:103ED0003C2E29DA203E40371400BC4000D001249B
:103EE000F24014431A00BB401C43D317ACE7AC4666
:103EF000202F08DA20360400B4400D00B540F84009
:103F000039412843A5E73C2F0CDA203F4036040016
:103F1000B44000D00124F84004430800B1400C43F1
:103F2000C117EAE710001900002494E70000F07FB1
:103F3000F0B50C0D661E3605891BE60A6405640D96
:103F400002D0651CED0A04D0002001210905803C47
:103F50002403A4461C0D671E3F05DB1BE70A64050E
:103F6000640D02D0651CED0A04D0002201231B055C
:103F7000803C24037740644497B484B296B274437F
:103F8000070C7E43150C6F4380B26843361802D38A
:103F9000012000043F183004350C00197D4184468F
:103FA00088B29AB250430C0C62431F0C7C438EB211
:103FB0007E43921902D301263604A4191604170C65
:103FC0003618674101BC81B29AB25143040C624376
:103FD0001B0C5C4380B25843121802D3012000042A
:103FE00024181004130C401863412D185E41002062
:103FF000474106BC88B293B258430C0C6343120C81
:10400000544389B251435B1802D301210904641857
:1040100019041A0C091862416D18564100204741D5
:1040200018BCF902720D1143F0026A0D1043ED0243
:104030000A0D03D16D1940414941013B124E9B1BB2
:104040007600B3420ED26D0007D3013000267141D5
:104050006646354301D1400840001B05C918E407F6
:104060002144F0BD0BDA013306D1013004D1013116
:104070004F0D01D04908F2E7E1070020F0BD0136FD
:1040800031050020EBE70000FF030000F0B51C0D38
:10409000671E3F05DB1BE70A6405640D02D0661C42
:1040A000F60A04D0002201231B05803C2403D025FE
:1040B0002D060026F6432E661E096E66CE0FF619F3
:1040C000B44649004F0D02D07E1CF60A03D00020F2
:1040D0000021403F3F033E1BB600B444013F7F0533
:1040E000C91B49082E6F013676089C02950D2543A1
:1040F0007543ED137543AD1301356D10F603761B53
:104100000CB4CC02450D2C43A2B2B3B25A43270CD7
:104110007B43350C6F43A4B26C431B1902D30124BB
:1041200024043F191C041D0CA4187D4124196D4161
:10413000009A91B2ACB26143170C7C432B0C5F43E5
:1041400092B25A43A41802D301221204BF182204C7
:10415000230C52187B41019C6C431B19520ED90150
:104160000A434401A01A81B2B2B2514303145A4324
:10417000360C734387B27743D617D21900277E4196
:1041800036049B191704160C7F185E417316ED1840
:10419000F301002680337541A90F06D16400690A36
:1041A000E8055B0A184309D22FE0042294448033C7
:1041B0007541A90AA8059B0A184326D340414941E5
:1041C0002404009A019B0D005543641B4343E41AE9
:1041D00095B286B27543170C7E43030C5F4392B2CF
:1041E0005A43B61802D301221204BF183204330C0A
:1041F00052197B4152429C41002C02D400220130D2
:1042000051414008CA071043490802B06246D70727
:104210009210084BD218084B9A4203D21205891803
:10422000C919F0BD0020002A01DC3900F0BD0133BE
:104230001905F5E7FD030000FE070000002200B5A8
:10424000203200F004F8080000BD000000220B1529
:104250000AD410B5944600F031F81414013400DA91
:104260000021CB17144C20470020002170476244E6
:10427000343A0CD40C2A07DA0400914090405242A0
:104280002032D440214310BDD843D94310BD203241
:1042900007D40C469440524220321141D040204372
:1042A00010BD0800C917203203D4524220321041F9
:1042B00010BD1800190010BD6F4200100A0DCC0F80
:1042C000531E1B05C91A520503D3C943404200D3EC
:1042D0000131520D03D0531CDB0A07D0121B002002
:1042E0006400611C89078912803A1203014BD21ABB
:1042F00070470000FF03000051434343C9188C4638
:10430000110C83B24B4310B4040C614392B280B2DF
:10431000504362431C041B0C001910BC5941130488
:10432000120CC0185141614470470000132310B5AE
:1043300012481C78FFF768F90100012C0AD003DD50
:1043400080220F4800F070F80E48FFF755F90E4B29
:10435000186010BD0A4C5422200000F065F80B4B89
:104360006365A365E36523666366A366E366236707
:104370006367A367E3672362E361E5E753460000F1
:10438000B81D00204C330000502000209143001045
:1043900007B5604601880A0A0230DF2AFAD1C9B29D
:1043A000820804D3028840880004104300E00068BB
:1043B000014A5050039007BDB81D002010B50400FD
:1043C0000AF03AF9002804D0034B04199C4200D8A3
:1043D00010BD0248FDF756FB0000042060010110EB
:1043E00010B50C000AF048FC002804D0034B041957
:1043F0009C4200D810BD0248FDF744FB0000042099
:104400006001011010B50AF021F910BD0148042126
:10441000014B18473013002019360010014B1B6860
:104420001847000030130020014B5B68184700005C
:104430003013002010B5FFF7C1FF10BD10B5FFF716
:10444000E1FF10BD10B5FFF7DDFF10BD030010B593
:10445000080011001B68984710BDC046F0B54646DD
:104460004F46D646C0B5437C80460E001700002B51
:1044700046D0002A3FDD4B1E9946244B01250024DF
:1044800000209A460DE04B461B5D0D3B5A425341BE
:10449000325DDBB20A2A0BD02B00013401359F427A
:1044A0001ADD002CEFD14346325D1B7C0A2AF3D182
:1044B000002BF1D1A04204DA4346211A1B683018C0
:1044C0009847434650461B6802219847013428000C
:1044D0002B0001359F42E4DC874204DD4346391A54
:1044E0001B6830189847F619013E33780D3B5A4245
:1044F000534142461374E0BCBA46B146A846F0BDEB
:104500000368110030009847F5E7C046E801011044
:10451000F0B5C6460C000968060000B5802906D033
:104520004B1C23606418267180BCB846F0BD0F4B4D
:104530001D68002D16D0231D98460D4F02E0ED6832
:10454000002D0FD02B68002BF9D03B68002B01D039
:10455000AB42F4D1280041462268FFF77FFFED68A7
:10456000002DEFD101230021DBE7C0462C200020E5
:1045700034200020F0B557464E464546DE461C0026
:10458000D023E0B51B061F68344B83B006000D0036
:10459000180001A991469A460BF0FEFB80460028C0
:1045A00008D1019B7FB29F4204D050460BF02CFCF7
:1045B000012398466B1C03D130000AF0B1FD0500C1
:1045C000002C27D1264F274B1C68002C18D04B46B7
:1045D000002B21D1244B994602E0E468002C0FD037
:1045E0002368002BF9D04B461B68002B01D0A34257
:1045F000F3D120002A003100B847E468002CEFD145
:104600004346002B25D103B0F0BCBB46B246A946B9
:10461000A046F0BD154FD6E7134B99460A239B469B
:1046200002E0E468002CEBD02368002BF9D04B4665
:104630001B68002B01D0A342F3D12A0031002000D7
:10464000B8475A466B4620001A7101A90122B847A3
:10465000E7E750460BF050FBD5E7C046881B00202B
:104660005D4400102C200020342000204D44001018
:10467000F0B5CE46474680B583B06B46DE1CD023EE
:1046800030701B061C681F4B804601A91800994614
:104690000BF082FB071E20D01B4B1C68002C28D07F
:1046A0001A4D02E0E468002C0FD02368002BF9D0EB
:1046B0002B68002B01D0A342F4D12000012231004D
:1046C000FFF7CCFEE468002CEFD1002F11D140465B
:1046D00003B0C0BCB946B046F0BD019B64B29C4279
:1046E0000BD048460BF090FB074B01271C68002CB1
:1046F000D6D148460BF000FBE9E7034B1C68002CC1
:10470000CED1E4E7881B00202C200020342000209C
:1047100070B504000AF004FD002301000500012229
:104720002000FFF727FF084B1C68002C06D06368A9
:10473000002B05D09847E468002CF8D1280070BD04
:10474000E468002CF3D1F9E72C200020F0B54746AF
:10475000D64680B516000F0083B000282DD11C4B23
:104760001C4D1A685B68019200931B4B9A461B4BC9
:10477000984653461C68002C03D114E0E468002CD2
:1047800011D02B68002B01D0A342F7D1A368002BD6
:10479000F4D03100380098470028EFDD03B0C0BCEA
:1047A000BA46B046F0BD434600995B6A994209D8C3
:1047B00042460198926A824202D301204042EDE7CC
:1047C0009942FAD101200021FCF75AFDD1E7C046F9
:1047D000D0FE0010342000202C2000200040054096
:1047E000F0B54F46D6464646C0B501380D00170015
:1047F00082B0012842D8D0231B061C68214B01A996
:1048000018009A460BF0C8FA8146002808D1019B8F
:1048100064B29C4204D050460BF0F6FA012399464C
:10482000B8467B1C03D128000AF07AFC8046164B60
:104830001C68002C14D0154E02E0E468002C0FD048
:104840002368002BF9D03368002B01D0A342F4D1A8
:10485000200042462900FFF701FEE468002CEFD15A
:104860004B46002B06D1380002B0E0BCBA46B14638
:10487000A846F0BD50460BF03FFAF4E701277F420F
:10488000F1E7C046881B00202C20002034200020A7
:10489000F0B54746CE46D02380B51B061D682E4B8B
:1048A000A5B007000C00180003A998460BF074FA95
:1048B000061E07D1039B6DB29D4203D040460BF00C
:1048C000A3FA01368422002103A8FFF7A7FD2300E5
:1048D0003A00224803A9FEF75FFE039B0700002B66
:1048E00014D11F4B1C68002C06D06368002B0BD022
:1048F0009847E468002CF8D1002E27D1380025B065
:10490000C0BCB946B046F0BDE468ECE7144B1D6886
:104910009946002D1ED0134C02E0ED68002D11D0F9
:104920002B68002BF9D02368002B01D0AB42F4D1C7
:10493000039B28001A0004A90193FFF78FFDED687F
:10494000002DEDD14B4603951C68CCE740460BF09B
:10495000D3F9D3E70395CFE7881B0020114500105A
:104960002C200020342000200FB400B583B004A90F
:1049700001C90191FFF78CFF03B008BC04B01847D0
:104980007047C046F8B557468246384B45465344B3
:104990005A425341802292029446DE464E465B4282
:1049A0001B0C334A1B046344E0B51360314A0D000D
:1049B0003149136018008A6890438146FAD1062075
:1049C000FDF77CFA804680200221EF0D6E02AB0DD0
:1049D000AA02400005E0904507D392197B4181422D
:1049E0003FD00C000231002BF5D0802627023F1B60
:1049F000760002E03F1B012E35D039004046B34619
:104A0000013EFEF753FE8542F4D2594633029946E1
:104A1000614353464A461C611B6850465340FF227F
:104A200012021340802252010243136003680720E0
:104A30005840CF23034013605246802303209B013C
:104A400024321A4310605246101D1843022303609B
:104A50004046FEF72BFEF0BCBB46B246A946A04638
:104A6000F8BD0C00C1E72100D3E7C0460040FCBF01
:104A700000E0004000F0004000C00040C0230221E0
:104A8000021D9B011A4311600200243213430322CA
:104A90001A60074B80229C46604443425841920270
:104AA000944643421B0C034A1B0463441360704743
:104AB0000040FCBF00E0004010B5314B82B01870E0
:104AC00001282FD02F4C0022230000210420009425
:104AD000FDF70CF823000022002105200094FDF7CB
:104AE00005F80720FCF7ECFF0820FCF7E9FF264B50
:104AF00002220021009309202300FCF7F7FF230086
:104B00000022002106200094FCF7F0FF1F48FDF76B
:104B100033FA1F48FDF730FAFDF74EFAFBF7F6FDC2
:104B200002B010BD1B4C002223000221009404207F
:104B3000FCF7DCFF23000022002100940520FCF795
:104B4000D5FF0720FCF7BCFF0820FCF7B9FF0E4B90
:104B500003220093002123000920FCF7C7FF230054
:104B60000022002100940620FCF7C0FF0748FDF753
:104B700003FA0748FDF700FA00F02EF8CEE7C0462A
:104B800070200020A02E63001BB7000000800240B0
:104B900000C00240001BB70070B5531E9A410500CB
:104BA000002911D114000134012221002800FBF753
:104BB000F3FD084B1B78012B09D000F025F82800E5
:104BC0002100FBF709FE70BD94000434ECE7FDF70B
:104BD00005FAF4E7702000208020074A074913688F
:104BE00040041940064B0B43064908601360936963
:104BF000002BFCDB7047C04600000640FF0F00FFA3
:104C000000E0D100183006408022054B52041A60A3
:104C1000044A054B1A60054A9369002BFCDA704779
:104C200018300640616D6F630C00064000000640BE
:104C3000F8B5CE464746050080B5C0681F0016008F
:104C40000C0001F089FD0021688901F037FD686ED4
:104C50000021FCF76FFA31237A1C9946D3B29846AB
:104C600028003123A9443230EC54002F53D03A00AD
:104C7000FF21FFF7D3FB290042464846103101F0DF
:104C80005FFD2B005222297C1133A9541900280002
:104C900031434F3A0A4051424A4102211230301A00
:104CA00081428941494211422DD07A1E082A2AD9CF
:104CB00000210024BA0818590131C9B23051043416
:104CC0008A42F8D1032239009143781A76185B188A
:104CD000C0B28F4209D01A783270012805D05A78B4
:104CE0007270022801D09B78B3706889012101F0AD
:104CF000E5FC686E0021FCF71DFA01F041FDC0BC27
:104D0000B946B046F8BD0022995CB1540132D1B227
:104D10008F42F9D1E9E7290001224846103101F01C
:104D20000FFD52232A7CEA54DFE7C046F8B5574608
:104D30004546DE464E469A465E23E0B5C35C040017
:104D40000D00002B00D075E05333C75C3E1C97422A
:104D500000D97BE0F6B2BB1BDBB29846E06801F0FD
:104D6000FBFC0021608901F0A9FC0021606EFCF7CA
:104D7000E1F9312350462100312299460137FBB237
:104D80003231A054701E9B46A1440B00C0B2002ECD
:104D900030D00A0003232A4313405A4253416A1C6D
:104DA0008A1A944602226245924152421A4255D0D2
:104DB000082853D9B3089C4600220023AF5801337A
:104DC000DBB28F5004329C45F8D1032332009A4362
:104DD0001300C01AAD18C0B28A189E4209D02B78B1
:104DE0001370002805D06B785370012801D0AB7880
:104DF00093708B194246002A03D000211800FFF758
:104E00000DFB21005A464846103101F099FC52230F
:104E1000227C0121E254608901F050FC0021606E87
:104E2000FCF788F901F0ACFCF0BCBB46B246A946E1
:104E3000A046F8BD53425341DBB29846161C202AC7
:104E400006D84346F6B2F718FFB287E7161C81E78B
:104E500020264346F6B2F718FFB27FE70023EA5C4C
:104E6000CA540133DAB29642F9D1C2E7F8B5040068
:104E70000F0016001D0001F035FC5323202227816E
:104E80006681E560E254002201210733E252553B7E
:104E90005D32A3540132A154002263664F33E254C1
:104EA000034B9D4201D8034BE3602000F8BDC04690
:104EB000B88800008096980070B504000D007C2929
:104EC00000D97D25E06801F047FC6089002101F0F0
:104ED000F5FB606E0021FCF72DF93123252221001E
:104EE0002000E2540133E55410313130233A01F00F
:104EF00027FC5223227C0121E254608901F0DEFB71
:104F00000021606EFCF716F901F03AFC70BDC04656
:104F1000F8B5DE4657464E4645460400E0B50B1C44
:104F200020293ED9202320265322A35431239B46F7
:104F3000213B9A4621339946202311259846322752
:104F4000A344A24401E05323E65CE06801F004FCC2
:104F50000021608901F0B2FB0021606EFCF7EAF8E5
:104F600043464A462B43A354514602225846E6552F
:104F700001F0E6FB5223227C0121E25460890135D5
:104F800001F09CFBEDB20021606EFCF7D3F801F05C
:104F9000F7FB172DD7D1F0BCBB46B246A946A046B9
:104FA000F8BDCEB2002EBFD101230136BCE7C0460A
:104FB000F0B5DE4657464E464546E0B5040087B09C
:104FC000F249C068FEF772FBFF250100F048294056
:104FD000FFF7CAFCE06801F0BFFB0021608901F027
:104FE0006DFB0021606EFCF7A5F831239846424620
:104FF0009B462C3BA3540B33994632275226A3449D
:10500000A1442F3A49465846E55501F099FB237CC7
:105010000121A355637C60899A4601F04FFB002172
:10502000606EFCF787F801F0ABFB96221201514647
:105030005244D848FFF798FC5A23E35CD64A9B00B9
:105040009958D648FFF790FCE06801F085FB0021F5
:10505000608901F033FB0021606EFCF76BF80623DA
:1050600042464946A35458462F3AE55501F068FB9D
:10507000237C0121A3556089657C01F01FFB002181
:10508000606EFCF757F801F07BFB28232B40202BA8
:1050900000D112E3083B5A425341C14A9B00995840
:1050A000C048FFF761FCE06801F056FB0021608911
:1050B00001F004FB0021606EFCF73CF806239A46E1
:1050C0005246322752262B33E254F9329046494653
:1050D0005846E255FD3A01F033FB237C0121A355EC
:1050E000657C608901F0EAFA0021606EFCF722F825
:1050F00001F046FB6B07AC4A9B0F9B009958AB48ED
:10510000FFF732FCE06801F027FB0021608901F025
:10511000D5FA0021606EFCF70DF831235246E254B7
:10512000424649465846E255FD3A01F009FB237CC8
:105130000121A3556089657C01F0C0FA0021606EF1
:10514000FBF7F8FF01F01CFB012292461540984A3C
:10515000AD0051599748FFF707FCE06801F0FCFAF1
:105160000021608901F0AAFA0021606EFBF7E2FFDE
:1051700031235146E154414602225846E155494601
:1051800001F0DEFA237C0121A3556089657C01F0E2
:1051900095FA0021606EFBF7CDFF01F0F1FAE068AF
:1051A00001F0DAFA0021608901F088FA0021606ECE
:1051B000FBF7C0FF00233122A35443462F3A494650
:1051C0005846E35501F0BCFA237C0121A3556089C0
:1051D000667C01F073FA0021606EFBF7ABFF01F013
:1051E000CFFA5923E654513B33401D4300D044E2EB
:1051F00071497248FFF7B8FBE06801F0ADFA002191
:10520000608901F05BFA0021606EFBF793FF3123A8
:1052100098462E3B9A463226FF2743465246522551
:10522000E2544946013A5846A75501F089FA237CD1
:1052300001216355637C6089059301F03FFA0021E9
:10524000606EFBF777FF01F09BFA5146059B5C48C7
:1052500019400231FFF788FB53235A48E15CFFF7FE
:1052600083FBE06801F078FA0021608901F026FAFA
:105270000021606EFBF75EFF042342464946A354BB
:1052800058462F3AA75501F05BFA237C012163555C
:10529000627C6089924601F011FA0021606EFBF792
:1052A00049FF01F06DFA5246FA21130901335943BF
:1052B0004548FFF759FB0F23514644481940FFF773
:1052C00053FBE06801F048FA0021608901F0F6F92B
:1052D0000021606EFBF72EFF082342464946A35487
:1052E00058462F3AA75501F02BFA237C012163552C
:1052F000627C6089924601F0E1F90021606EFBF763
:1053000019FF01F03DFA524631481109FFF72CFB15
:105310000F2351462F481940FFF726FBE06801F0A4
:105320001BFA0021608901F0C9F90021606EFBF7CA
:1053300001FF1D2342464946A35458462F3AA7551C
:1053400001F0FEF9237C01216355627C608992465D
:1053500001F0B4F90021606EFBF7ECFE01F010FAE9
:105360005246022352001340114A9B00D1581A485A
:10537000FFF7FAFA52469307DB0F0D4A9B00D1580C
:105380001648FFF7F1FAE0682AE0C04640420F00F5
:105390000C020110280201108804011044020110BF
:1053A0000805011054020110C00401106802011028
:1053B000D004011080020110200501109C02011090
:1053C000B0020110D0020110F40201101C03011000
:1053D000400301106C030110A4030110B403011079
:1053E00001F0BAF90021608901F068F90021606ECE
:1053F000FBF7A0FE1C2342464946A35458462F3AC9
:10540000A75501F09DF9237C01216355657C6089D6
:1054100001F054F90021606EFBF78CFE01F0B0F949
:10542000002D04D004235246134200D043E1A44986
:10543000A448FFF799FAE06801F08EF9002160892D
:1054400001F03CF90021606EFBF774FE0126312368
:10545000FF22E6540133E25449465846FD3A01F032
:105460006FF95223227C0121E254657C608901F0AE
:1054700025F90021606EFBF75DFE01F081F93F2DFB
:1054800002D0002D00D0FCE06B1E9D418E4BAD0084
:1054900059598E48FFF768FAE06801F05DF900217C
:1054A000608901F00BF90021606EFBF743FE0022DA
:1054B0003123E2540133FF32E25449465846FD3A63
:1054C00001F03EF95223227C0121E2546089657C7F
:1054D00001F0F4F80021606EFBF72CFE01F050F9AA
:1054E0005923E554583B1D4069425D259943543189
:1054F0007748FFF739FA77497748FFF735FA605D63
:10550000FEF798FF06000200635D10212000FFF700
:105510008FFB7248FFF728FA655D013D7519B542AA
:1055200007D36F4F29783800013DFFF71DFAAE42CF
:10553000F8D93000FEF782FF6A48FFF7E9F8E06823
:1055400001F00AF90021608901F0B8F80021606ECD
:10555000FBF7F0FD31230222E2540133FD32E25425
:1055600049465846FD3A01F0EBF85223227C0121CE
:10557000E254637C6089059301F0A0F80021606E1D
:10558000FBF7D8FD01F0FCF801239A46544B0025A7
:10559000984634E0FFF7E8F9E06801F0DDF8002113
:1055A000608901F08BF80021606EFBF7C3FD3123A9
:1055B000FF220A37E7540133E25449465846FD3A80
:1055C00001F0BEF85223227C0121E254667C6089FE
:1055D00001F074F80021606EFBF7ACFD01F0D0F82B
:1055E00031004148FFF7C0F93E48FFF791F85346B4
:1055F000062B3BD053460133DBB29A460135059B5F
:1056000001222B41134003332F4A9B002900D2581B
:105610003648FFF7A9F9EFB235492F48012DB9D81F
:10562000FFF7A2F95D23E05CFEF704FF5D230A3774
:105630000200E35CF9B206002000FFF7F9FA274800
:10564000FFF792F95D23E75C013FF719BE4206D8E8
:1056500039784046013FFFF787F9BE42F8D930005C
:10566000FEF7ECFE1F48FFF753F8C3E707B0F0BCA6
:10567000BB46B246A946A046F0BD730719D41D49E2
:10568000B7E56807AF07A906EA062B07C00F354044
:10569000FF0F303030373035C90FD20FDB0F00909D
:1056A000303130323033029501971348FFF75CF9FF
:1056B000F2E612499DE51249BAE61249F0E4C04605
:1056C00020050110CC030110D0040110E4030110E7
:1056D0002804011040040110EC0101100002011027
:1056E00004020110FC010110F40101104C0401102E
:1056F000A00301102C050110000401103805011051
:1057000014050110FC040110F0B5DE4657464E4664
:1057100045460400E0B5052083B0FBF723FDE068B3
:1057200001F01AF80021608900F0C8FF0021606EC6
:10573000FBF700FD312399464A460D3BA3540E3337
:1057400098462500260042465227313510362D3323
:10575000A3543100303A280000F0F2FF237C0121ED
:10576000E355608900F0AAFF0021606EFBF7E2FCC0
:1057700001F006F8E06800F0EFFF0021608900F01A
:105780009DFF0021606EFBF7D5FC06239B464B4630
:105790005A46E254CE339A46434652463100E254CA
:1057A0002800FD3A00F0CCFF237C0121E355637C07
:1057B0006089019300F082FF0021606EFBF7BAFC64
:1057C00000F0DEFF8C235B002366E06800F0C4FF7E
:1057D0000021608900F072FF0021606EFBF7AAFCD7
:1057E00026234946019A635402339A4313004246E2
:1057F0003100A3542800303A00F0A2FF237C01219D
:10580000E355608900F05AFF0021606EFBF792FCBF
:1058100000F0B6FFE06800F09FFF0021608900F013
:105820004DFF0021606EFBF785FC5A464B46E25463
:10583000434652463100E2542800FD3A00F080FF12
:10584000237C0121E355608900F038FF0021606E60
:10585000FBF770FC00F094FFE06800F07DFF002192
:10586000608900F02BFF0021606EFBF763FC1D23B5
:105870009B464B465A46E254434652463100E25458
:105880002800FD3A00F05CFF237CE355617C6089D1
:105890000191012100F012FF0021606EFBF74AFC2C
:1058A00000F06EFFE06800F057FF0021608900F013
:1058B00005FF0021606EFBF73DFC502000F02AFF41
:1058C000E055732000F026FF0121608900F0F6FE0C
:1058D0000021606EFBF72EFC00F052FFE06800F044
:1058E0003BFF0021608900F0E9FE0021606EFBF7BC
:1058F00021FC4B465A46E254434652463100E2549C
:105900002800FD3A00F01CFF237C0121E355637C55
:105910006089984600F0D2FE0021606EFBF70AFC19
:1059200000F02EFF434601995B1A5A4253415A2216
:10593000A3544346002B25D0884500D1F2E1E0680E
:1059400000F00AFF0021608900F0B8FE0021606EBF
:10595000FBF7F0FB31233D22E25400220133E254F5
:1059600031002800023200F0EBFE5223227C01219C
:10597000E254608900F0A2FE0021606EFBF7DAFBC2
:1059800000F0FEFE00239A4652465C33E254E06883
:1059900000F0E2FE0021608900F090FE0021606EC0
:1059A000FBF7C8FB312399464A460B33A3545246B2
:1059B00052270A3BE254310002322800984600F098
:1059C000BFFE237C0121E355608900F077FE0021B2
:1059D000606EFBF7AFFB00F0D3FE52465E23E0683B
:1059E000E25400F0B9FE0021608900F067FE00215A
:1059F000606EFBF79FFB21234A46A35442461E33A9
:105A0000A3543100303A280000F09AFE237C012193
:105A1000E355608900F052FE0021606EFBF78AFBBF
:105A200000F0AEFEE06800F097FE0021608900F013
:105A300045FE0021606EFBF77DFB22234A46A354FE
:105A400042461F3BA3543100303A280000F078FE54
:105A5000237C0121E355608900F030FE0021606E57
:105A6000FBF768FB00F08CFE53232022E254333B0B
:105A7000984611339A462023413F9B4602E0532328
:105A8000E35C9846E06800F067FE0021608900F062
:105A900015FE0021606EFBF74DFB5B4652463B4313
:105AA000A354322342463100E25428000222994690
:105AB00000F046FE522398464246237C0121A3541F
:105AC0006089013700F0FAFDFFB20021606EFBF73C
:105AD00031FB00F055FE172FD1D1E06800F03CFEFD
